:040000004FEF00F0CE
:100008004D82FACF2EF0FBCF2FF0E9CF30F0EACFB8
:1000180031F0E1CF32F0E2CF33F0D9CF34F0DACF9C
:1000280035F0F3CF36F0F4CF37F0F6CF38F0F7CF1E
:1000380039F0F8CF3AF0F5CF3BF04DC03CF04EC068
:100048003DF04FC03EF050C03FF03FC050F03EC0C2
:100058004FF03DC04EF03CC04DF03BC0F5FF3AC0FC
:10006800F8FF39C0F7FF38C0F6FF37C0F4FF36C0D5
:10007800F3FF35C0DAFF34C0D9FF33C0E2FF32C026
:10008800E1FF31C0EAFF30C0E9FF2FC0FBFF2EC0FF
:0A009800FAFF4D9211009EEF0EF0EA
:1008000000D7085308A908870805010905A10115A3
:10081000002501350045017501950D0509190129CE
:100820000D81029503810105012507463B017504F1
:10083000950165140939814265009501810126FF02
:100840000046FF0009300931093209357508950461
:100850008102C034034D006900630072006F0063C1
:1008600000680069007000200054006500630068A3
:10087000006E006F006C006F006700790020004977
:10088000006E0063002E0009022200010100C03248
:1008900009040000010300000009211101000122E8
:1008A0004A00070581034000011C034A006F0079DC
:1008B0000073007400690063006B00200044006551
:1008C000006D006F001201000200000008D8045EF5
:1008D00000010001020001040309040004012205D3
:1008E000D8A410D0040120511F0B0009D8A40AD0AD
:1008F000048E030E04012119D8A402D0010E01D0E8
:10090000000E256E04012251D8A4120004012051CA
:100910001F0B020AD8A41200040124510F0B000976
:10092000D8B41200040124510F0B4C6E020E4C601F
:100930001200200E2818D8A41200048E040124BF2F
:100940001BD0040124510F0B4C6E4C50020D0B0EAA
:10095000F324D96E000EF420DA6EDECF7EF0DDCF08
:100960007FF0040124510F0B4C6E4C50010D110E01
:10097000F324D96E000E1AD0040124510F0B4C6ED3
:100980004C50020D070EF324D96E000EF420DA6EDF
:10099000DECF7EF0DDCF7FF0040124510F0B4C6ED3
:1009A0004C50010D130EF324D96E000EF420DA6EB4
:1009B000DF5000017D6F00017DB109D0FB0E000109
:1009C0007E1500017E6FFF0E00017F1507D0040E1B
:1009D00000017E1100017E6F00017F5100017F6FD9
:1009E000040124BF0BD0040124510F0B4C6E4C505A
:1009F000020D0B0EF324D96E000E0AD0040124510F
:100A00000F0B4C6E4C50020D070EF324D96E000EE6
:100A1000F420DA6E7EC0DEFF7FC0DDFF030E04012E
:100A20002119D8A42FD07EC0D9FF7FC0DAFF0001E2
:100A3000DFAE1BD0040124BF0BD0040124510F0BE7
:100A40004C6E4C50010D110EF324D96E000E0AD0DD
:100A5000040124510F0B4C6E4C50010D130EF32466
:100A6000D96E000EF420DA6EDF827EC0D9FF7FC01F
:100A7000DAFF000EDB847EC0D9FF7FC0DAFF000EF4
:100A8000DB8E1200040E00017E1900017E6F000152
:100A90007F5100017F6F7EC0D9FF7FC0DAFF000168
:100AA000DFAE1DD07EC0D9FF7FC0DAFF7F0EDF161C
:100AB0007EC0D9FF7FC0DAFF000EDB8C000E000184
:100AC000746F050E736F7EC075F07FC076F0000EF8
:100AD0000001786F020E776F87EC0DF006D07EC0B4
:100AE000D9FF7FC0DAFF000EDB8C040E00017E19F7
:100AF00000017E6F00017F5100017F6F00017DB317
:100B000007D07EC0D9FF7FC0DAFF0001DFAE32D050
:100B1000040124BF0BD0040124510F0B4C6E4C5028
:100B2000010D110EF324D96E000E0AD004012451D8
:100B30000F0B4C6E4C50010D130EF324D96E000EAA
:100B4000F420DA6EDF927EC0D9FF7FC0DAFF3B0E61
:100B5000DF16000E0001746F050E736F7EC075F016
:100B60007FC076F0000E0001786F020E776F87EC81
:100B70000DF006D07EC0D9FF7FC0DAFF3B0EDF1636
:100B8000040124510F0B4C6E4C50010D700EF324D8
:100B900000017B6F0F0EF42000017C6F7BC0D9FF3A
:100BA0007CC0DAFFFE0EDF1612002850D8A410D049
:100BB000000E6D6E000E696E160E6F6E9F0E6B6EE0
:100BC0007B0E696E01D06D866DA6FDD7010E286E75
:100BD0002804D8B46DBA08D0000E686E000E696E95
:100BE00069806988020E286E68B469A403D068948D
:100BF00051EC0EF06DA202D0A19A120068B069A06B
:100C000005D08EEC06F0040E286E689068B869A8CE
:100C100002D06EEC0EF068AC1ED069AC12D0000EA3
:100C20000001746F730E736F000E0001756F000E7C
:100C30000001766F000E0001786F010E776F87EC70
:100C40000DF0689CC3EC0EF02150D8A42106215071
:100C5000D8B4F9EC0AF068BA69AA02D012EC0EF026
:100C600068B269A213D07F0E0001746F7369000E21
:100C70000001756F000E0001766F000E0001786FA5
:100C8000010E776F87EC0DF0000E6A6E040E28607F
:100C900002D0A19A120069A63FD0000E0001816F18
:100CA000030E0001816501D037D068A635D06CCF26
:100CB0002BF02B30E832E8320F0B236E68962BB402
:100CC00007D02350010D110EF324D96E000E06D06B
:100CD0002350010D130EF324D96E000EF420DA6EAA
:100CE000DF702350D8A403D010EC0CF012D0000E0B
:100CF0000001746F720E736F2B0E0001756F000E82
:100D00000001766F000E0001786F000E776F87ECA0
:100D10000DF00001812BC4D7A19A1200A09A000EF9
:100D20006A6E000E686E000E706E710E406E0F0ED1
:100D3000416E000E436E000E426E000E456E010EB7
:100D4000446E88EC0EF0160E6F6E9F0E6B6E7B0E6F
:100D5000696E000E486E070E486401D00ED04850F0
:100D6000040D000EF324D96E040EF420DA6EDE6A50
:100D7000DE6ADE6ADD6A482AEED76D8C000E6E6E82
:100D80006D986D9C6896000E046E000E0001636FF6
:100D9000000E0001656F000E646F68B6F3D7010E98
:100DA0001F6E010E1E6E000E1D6E000E1C6E000EDC
:100DB000246E000E486E010E486401D02ED04850BB
:100DC000020D070EF324D96E000EF420DA6E000E29
:100DD000DE6E000EDD6E4850020D0B0EF324D96E50
:100DE000000EF420DA6E000EDE6E000EDD6E48504E
:100DF000010D130EF324D96E000EF420DA6E000EEE
:100E0000DF6E4850010D110EF324D96E000EF42050
:100E1000DA6E000EDF6E482ACED7080E076E040E7B
:100E2000086E160E706E040E0401036F200E026F22
:100E3000080E0401016F040E0401006F0401008F0D
:100E4000000E2D6E000E0001686F000E696F000E1F
:100E50006A6F000E6B6F000E1B6E000E286E120084
:100E6000800E04012019D8A41200C00E046E7CD09C
:100E7000C50E016E080E026E000E066E120E056E95
:100E8000120004012251D8A43ED004012251020DC7
:100E9000070EF324F66E080EF420F76E0900F5CF66
:100EA00001F00A00F5CF02F0020E0124406E000EA0
:100EB0000220416E40C0F6FF41C0F7FFF86A070EFE
:100EC000F76403D00800F55005D0F6CFE1FFF7CF67
:100ED000E2FFE750056E030E0124406E000E022073
:100EE000416E40C0F6FF41C0F7FFF86A070EF76495
:100EF00003D00800F55005D0F6CFE1FFF7CFE2FFB1
:100F0000E750066E1200000E046E1200030E04017C
:100F1000226124D004012251020D010EF324F66E49
:100F2000080EF420F76E0900F5CF01F00A00F5CFA6
:100F300002F001C0F6FF02C0F7FFF86A070EF7647F
:100F400003D00800F55005D0F6CFE1FFF7CFE2FF60
:100F5000E750406E4050056E066A1200000E046EA7
:100F60001200000E046E120004012351010AD8B4CD
:100F70007FD7030AD8B485D7010AD8B4C7D7F1D729
:100F800020EE01F01950D9261A50DA22DF50416EB6
:100F900041500001645D000E6559D8A064C041F065
:100FA00041500001645F000E655B000E406E12D080
:100FB0004050010D280EF324D96E040EF420DA6E91
:100FC00060C0E1FF61C0E2FFDFCFE7FF0001604BDF
:100FD000612B402A4150405CD8A0EAD700016451FF
:100FE00000016511D8B432D020EE01F01750D92697
:100FF0001850DA22080EDF6E20EE02F01750D926C4
:101000001850DA22280EDE6E040EDD6E19C0D9FFEC
:101010001AC0DAFFDFBC0DD017C0D9FF18C0DAFF45
:10102000480EDF6E17C0D9FF18C0DAFF000EDB8E46
:10103000120017C0D9FF18C0DAFF080EDF6E17C004
:10104000D9FF18C0DAFF000EDB8E120020EE01F08F
:101050001750D9261850DA22080EDF6E20EE02F063
:101060001750D9261850DA22200EDE6E040EDD6EDF
:1010700017C0D9FF18C0DAFF040EDF6E17C0D9FF02
:1010800018C0DAFF000EDB8E0001639F2050D8A449
:101090001200F9EC0AF01200486E4050D8B407D0A4
:1010A0004850020D070EF324D96E000E06D04850AA
:1010B000020D0B0EF324D96E000EF420DA6EDECF93
:1010C00049F0DDCF4AF049504A10D8A405D0000EAF
:1010D000406E000E416E120020EE02F04950D926FB
:1010E0004A50DA2241C0DEFF42C0DDFF20EE01F0AF
:1010F0004950D9264A50DA2243C0DFFF49C0D9FF00
:101100004AC0DAFF400EDF1649C0D9FF4AC0DAFFF5
:10111000000EDB8649C0D9FF4AC0DAFF000EDB8E25
:101120004050D8B418D04850020D070EF324D96EA1
:10113000000EF420DA6EDECF44F0DDCF45F0040E71
:101140004418466E4550476E4850020D070EF32472
:10115000D96E000E17D04850020D0B0EF324D96E35
:10116000000EF420DA6EDECF44F0DDCF45F0040E41
:101170004418466E4550476E4850020D0B0EF3243E
:10118000D96E000EF420DA6E46C0DEFF47C0DDFFE8
:1011900049C040F04AC041F012006D9804BE39D0F9
:1011A000000163AF0BD0020E266E1C50D8B4ACEC1D
:1011B0000CF0000E1E6E000E1F6E120020EE01F0ED
:1011C0001750D9261850DA22080EDF6E20EE02F0F2
:1011D0001750D9261850DA22200EDE6E040EDD6E6E
:1011E00017C0D9FF18C0DAFF0C0EDF6E17C0D9FF89
:1011F00018C0DAFF000EDB8E07C0D9FF08C0DAFF87
:10120000040EDF6E07C0D9FF08C0DAFF000EDB8EC8
:101210001200040120AF10D0010E266E1D50D8B46C
:10122000ACEC0CF0000E1E6E000E1F6E2050D8A409
:101230001200F9EC0AF01200020E266E20EE01F008
:101240001750D9261850DA22080EDF6E20EE02F071
:101250001750D9261850DA22200EDE6E040EDD6EED
:1012600017C0D9FF18C0DAFF040EDF6E17C0D9FF10
:1012700018C0DAFF000EDB8E000E1E6E000E1F6E11
:101280002050D8A41200F9EC0AF01200048E710E5E
:10129000406E0F0E416E000E436E000E426E000E49
:1012A000456E010E446E88EC0EF0000E406E040E8A
:1012B000416E000E436E000E426E000E456E200E13
:1012C000446E88EC0EF06D8C000E4C6E010E4C647A
:1012D00001D016D04C50010D130EF324D96E000E20
:1012E000F420DA6E000EDF6E4C50010D110EF32467
:1012F000D96E000EF420DA6E000EDF6E4C2AE6D7AF
:101300002C0E406E000E416E000E436E000E426EBB
:10131000000E456E010E446E88EC0EF06D9C080EBA
:10132000076E040E086E000E196E040E1A6E19C0B8
:1013300017F01AC018F022C42DF02D50D8A403D0F5
:10134000100E286E1200000E0001746F010E736FF4
:101350002D0E0001756F000E0001766F000E00016A
:10136000786F010E776F87EC0DF0200E286E12005B
:1013700004012039E832030B0009D8A4120047D039
:10138000048E080E286E120030EC07F0120046ECB6
:1013900009F012002D0E016E000E026E0480010E87
:1013A000056E048E1200BBEC0BF012006EEC04F024
:1013B000120004012451010D2C0EF324016E000EC5
:1013C000F420026E0480010E056E048E1200048E5D
:1013D00004012451010D2C0EF324D96E000EF420CB
:1013E000DA6E22C4DFFF1200000E0001746F020EDD
:1013F000736F000E0001756F000E0001766F000E16
:101400000001786F000E776F87EC0DF01200040179
:101410002151000AD8B4C7D7010AD8B4C7D7020AE5
:10142000D8B4C4D7060AD8B4ABD7030AD8B4ACD75B
:10143000010AD8B4D9D70F0AD8B4ACD7010AD8B4A6
:10144000A6D7030AD8B4B5D7010AD8B4C0D7070ABB
:101450001200040120511F0BE806D8A41200040159
:101460002451D8A41200060E04012119D8B418D0B2
:1014700020D02D04D8A41DD0990E016E080E026E46
:10148000000E066E090E0AD0C00E046E12D0090EB0
:10149000016E080E026E000E066E4A0E056EF4D73F
:1014A00004012351210AD8B4E4D7030AD8B4EFD7F2
:1014B000010A04012039E832030BE806D8A412001F
:1014C00020D02A0E016E000E026E000E066E010E76
:1014D000056EC10E046E1200800E046E23C42AF045
:1014E0001200290E016E000E026E000E066E010E35
:1014F000056E810E046E1200800E046E22C429F067
:10150000120004012151010AD8B41200030AD8B410
:10151000D8D7010AD8B4E5D70A0AD8B41200030A0A
:10152000D8B4DAD7010AD8A41200E6D7080E406E64
:10153000065010E1080E055CD8B00CD005C040F094
:101540002750D8A402D0010E04D02704D8A402D07A
:10155000020E276E4050055E000E065A20EE01F086
:101560000750D9260850DA2240C0DFFF280E156E3A
:10157000040E166E04A01BD038D001C0F6FF02C0C6
:10158000F7FFF86A15C0D9FF16C0DAFF070EF76437
:1015900003D00800F55005D0F6CFE1FFF7CFE2FF0A
:1015A000E750DF6E014A022A154A162A40064050CB
:1015B000D8B41200E2D701C0F6FF02C0F7FFF86A04
:1015C00015C0D9FF16C0DAFF070EF76403D0080074
:1015D000F55005D0F6CFE1FFF7CFE2FFE750DF6E21
:1015E000014A022A154A162A40064050D8B4120071
:1015F000E2D71F50D8A41200010E1F6E1E50D8A4AF
:101600001200010E1E6E020E2618D8A415D020EE70
:1016100001F00750D9260850DA22000EDF6E07C00D
:10162000D9FF08C0DAFF480EDF6E07C0D9FF08C037
:10163000DAFF000EDB8E12002604D8A41200000E82
:10164000226E20EE01F01950D9261A50DA22080E27
:10165000DF6E20EE02F01950D9261A50DA22200E41
:10166000DE6E040EDD6E19C0D9FF1AC0DAFF040E5B
:10167000DF6E19C0D9FF1AC0DAFF000EDB8E010E33
:10168000226E20EE01F01750D9261850DA22080EEB
:10169000DF6E20EE02F01750D9261850DA22200E05
:1016A000DE6E040EDD6E17C0D9FF18C0DAFF800EA3
:1016B000DF6E120007C0D9FF08C0DAFF000EDFBCE2
:1016C000010E416E040E0718076E0850086E080ED2
:1016D0002818D8A40BD0040122517F0B6E6E6E50D7
:1016E000D8B402D0100E01D0040E286E2604D8A45F
:1016F0003AD020EE02F00750D9260850DA22280E00
:10170000DE6E040EDD6E96EC0AF0020E2718D8A4E9
:101710000DD007C0D9FF08C0DAFF040EDF6E07C086
:10172000D9FF08C0DAFF000EDB8E12004150D8A4AA
:101730000DD007C0D9FF08C0DAFF480EDF6E07C022
:10174000D9FF08C0DAFF000EDB8E120007C0D9FFF8
:1017500008C0DAFF080EDF6E07C0D9FF08C0DAFF45
:10176000000EDB8E1200000163AF02D00001639F08
:10177000000E266E1200000E0401286F000E0401F8
:10178000296F38D0048E2504D8A440D004012883C2
:101790003DD0048E3BD0048E040124BF0BD0040145
:1017A00024510F0B406E4050020D0B0EF324D96EE6
:1017B000000E0AD0040124510F0B406E4050020D60
:1017C000070EF324D96E000EF420DA6EDECF41F05E
:1017D000DDCF42F041C0D9FF42C0DAFFDFAE16D004
:1017E00041C0D9FF42C0DAFFDFA410D0010E0401CE
:1017F000286F0CD0040120511F0B000AD8B4C2D7A7
:10180000010AD8B4C6D7030AD8B4C5D704AE1200AB
:10181000280E016E040E026E0480020E056E120088
:101820002D0E216E2BC080F0FD0E00018017D8A474
:101830003ED02BC080F00001D89080333F0E0001D5
:10184000801700018051040D000EF324196E040E60
:10185000F4201A6E19C017F01AC018F0040E1718E9
:10186000176E1850186E19C0D9FF1AC0DAFFDF3092
:10187000E8320F0B0D0AD8A417D0200E406E040ECC
:10188000416E20EE02F01950D9261A50DA22DECF2E
:1018900042F0DDCF43F0000E456E080E446EF0ECD2
:1018A0000DF05FEC0CF01200C2EC0DF012002B50AA
:1018B000FD0B040AD8A412005AEC0BF01200000E23
:1018C000276E000E206E000E1D6E000E1C6E000EA8
:1018D000226E000E266E07C0D9FF08C0DAFF7F0E09
:1018E000DF16040E0718076E0850086E07C0D9FFF0
:1018F00008C0DAFF7F0EDF16040E0718076E0850C7
:10190000086E17C0D9FF18C0DAFF7F0EDF16000E71
:10191000046E000E066E000E056E000E0001636F71
:10192000000E0001656F000E646FB8EC09F0000E48
:101930000001746F030E736F000E0001756F000ECF
:101940000001766F000E0001786F000E776F87EC54
:101950000DF0CDEC08F01200000E1D6E000E1C6E96
:10196000020E2618D8A41FD020EE01F01750D92659
:101970001850DA22080EDF6E20EE02F01750D9263A
:101980001850DA22280EDE6E040EDD6E17C0D9FF65
:1019900018C0DAFF480EDF6E17C0D9FF18C0DAFF93
:1019A000000EDB8E120005500401265D0650040176
:1019B0002759D8B004D026C405F027C406F096EC09
:1019C0000AF020EE02F00750D9260850DA22280E3D
:1019D000DE6E040EDD6E07C0D9FF08C0DAFF480EC8
:1019E000DF6E07C0D9FF08C0DAFF000EDB8E1200E1
:1019F000456E000E466E040E476E4050416E426AC0
:101A0000D890413642364550436E446AD8904336AA
:101A10004436D890433644364150432642504422FF
:101A2000D89043364436D890433644364350462601
:101A30004450472246C0D9FF47C0DAFFDF9E4050DE
:101A4000D8A407D04550020D0B0EF324D96E000E1A
:101A500006D04550020D070EF324D96E000EF42077
:101A6000DA6E46C0DEFF47C0DDFF46C0D9FF47C083
:101A7000DAFFDF9C20EE04F04650D9264750DA22E8
:101A8000DF8C1200200E286001D012006DB212000F
:101A90000F501010D8B406D00FC0D9FF10C0DAFF15
:101AA000DFBE120000016C8300016C9100016C9597
:101AB00000016C9700016C9900016C9B00016C9D0A
:101AC00000016C9F00016D9100016D9300016D9507
:101AD00000016D9700016D9900016E51F00B020934
:101AE0006E6F000E00016F6F000E0001706F010E2F
:101AF000406E6C0E416E000E426E070E436E010E7C
:101B00004CEC08F040C00FF041C010F012000ED0B5
:101B1000010ED3EC0EF01200020ED3EC0EF0120008
:101B2000DDEC0EF0120029EC0AF0120073C079F01F
:101B300074C07AF000017A51000AD8B404D07F0A48
:101B4000D8A412001BD000017951010AD8B4E8D7FB
:101B5000030AD8B41200010AD8B4E5D7060AD8B4EB
:101B60001200770AD8B41200010AD8B41200070A8A
:101B7000D8B4D2D7010AD8A41200CAD7000179512B
:101B8000FF0A1200020E2618D8A403D0C0EC07F0FA
:101B90001200000E266E2250D8A41FD020EE01F0B5
:101BA0001750D9261850DA22080EDF6E20EE02F008
:101BB0001750D9261850DA22200EDE6E040EDD6E84
:101BC00017C0D9FF18C0DAFF0C0EDF6E17C0D9FF9F
:101BD00018C0DAFF000EDB8E1200000E226E12001B
:101BE00042C049F043C04AF040C047F041C048F00D
:101BF00010D049C0D9FF4AC0DAFFDF50466E494ACB
:101C00004A2A47C0D9FF48C0DAFF46C0DFFF474A2B
:101C1000482A4406D8A045064428EBE14528D8B414
:101C20001200E7D770A01DD019C0D9FF1AC0DAFF83
:101C3000800EDE18D8A414D007C0D9FF08C0DAFF80
:101C4000840EDE18D8A40CD019C0D9FF1AC0DAFF50
:101C50000C0EDF6E19C0D9FF1AC0DAFF000EDB8E42
:101C60007090689A12004B6E48A405D0000E406E2A
:101C70004B50F8EC0CF048A205D0010E406E4B50D2
:101C8000F8EC0CF04B50010D700EF324496E0F0E62
:101C9000F4204A6E49C0D9FF4AC0DAFF48C0DFFFCE
:101CA0001200000E246E000E0001746F740E736F2C
:101CB000000E0001756F000E0001766F000E00012E
:101CC000786F000E776F87EC0DF06D92699401D0FC
:101CD000689468B4FDD7000E1B6E12006984689882
:101CE0006D82010E246E000E1B6E000E0001746FDB
:101CF000750E736F000E0001756F000E0001766F98
:101D0000000E0001786F000E776F87EC0DF0120067
:101D100040C046F041C047F008D046C0D9FF47C098
:101D2000DAFF42C0DFFF464A472A4406D8A04506EC
:101D30004428F3E14528D8B41200EFD700EE60F054
:101D4000130EEE6AE806FDE100EE01F02D0EEE6ADC
:101D5000E806FDE14D904D92000EF86E0001B1EFE6
:101D60000EF0000ED3EC0EF08EEC06F0E7EC0EF069
:101D7000D5EC05F0200E286001D0F8D76DB2F6D76B
:101D800042EC0DF0F3D7010E00016827000E692325
:101D90006A236B232450D8A412001B2A1B50D8A4FA
:101DA00012001B681200406E4050000AD8B41200A6
:101DB000010AD8B41200030A1200000E0F6E000EC2
:101DC000106E1A0E486E010E33EC0EF01200120067
:020000040020DA
:08000000FFFFFFFFFFFFFFFF00
:020000040030CA
:0E000000240E3F1EFF8381FF0FC00FE00F4054
:00000001FF
