:020000040000FA
:100000005AEF00F0FFFFFFFF5B82FACFB9F0FBCFA2
:10001000BAF08FED13F0FFFF5B80D8CF1DF0E8CF73
:100020001EF0E0CF1FF0FACF20F0FBCF21F0E9CF98
:1000300022F0EACF23F0E1CF24F0E2CF25F0D9CFB0
:1000400026F0DACF27F0F3CF28F0F4CF29F0F6CF5F
:100050002AF0F7CF2BF0F8CF2CF0F5CF2DF09EA2A1
:1000600005D062EC0CF07CEC04F09E922DC0F5FF04
:100070002CC0F8FF2BC0F7FF2AC0F6FF29C0F4FF01
:1000800028C0F3FF27C0DAFF26C0D9FF25C0E2FF52
:1000900024C0E1FF23C0EAFF22C0E9FF21C0FBFF2B
:1000A00020C0FAFF1FC0E0FF1EC0E8FF1DC0D8FF40
:1000B0005B90100043EF14F0FFFFFFFFFFFFFFFF17
:1000C000FFFFFFFFFFFFFFFFFFFFFFFFFFFFFFFF40
:1000D000FFFFFFFFFFFFFFFFFFFFFFFFFFFFFFFF30
:1000E000FFFFFFFFFFFFFFFFFFFFFFFFFFFFFFFF20
:1000F000FFFFFFFFFFFFFFFFFFFFFFFFFFFFFFFF10
:1008000000F308B708E708950805010904A101A14C
:10081000008501050919012920150025019520757C
:10082000018102C0C005010904A101A100850205E2
:10083000091901292015002501952075018102C0A3
:10084000C005010904A101A10085030509190129B9
:100850002015002501952075018102C0C005010900
:1008600004A101A10085040509190129201500250D
:1008700001952075018102C0C005010904A101A1F3
:100880000085050509190129201500250195207508
:10089000018102C0C009022200010100C032090426
:1008A00000000103000000092111010001228C0059
:1008B000070581034000011E0353007400650066B4
:1008C0000061006E0020004D00750065006C006C3A
:1008D00000650072001201000200000008D8045EEA
:1008E000000100010200010C034B006E006F00626A
:1008F00000790004030904005A2A1B0E5A6402D02E
:10090000000E5A6E8150FF0A1B6E8350FF0A1C6E48
:100910008FD2452A060E456402D0000E456E8CC06B
:1009200001F0000E026E1B5055EC13F000018C6FAD
:100930008DC001F0010E026E1C5055EC13F0000149
:100940008D6F89808D9012001CC001F0FF0E026E29
:10095000000E036E4F0E046E000E056E500E066EF6
:10096000000E076E580E086E000E096E1B50D9EC73
:1009700008F08D808D9212001CC001F0300E026EC6
:10098000010E036E520E046E000E056E530E066EBF
:10099000000E076E590E086E000E096E1B50D9EC42
:1009A00008F08D828D9412001CC001F0FC0E026EC6
:1009B000020E036E540E046E000E056E550E066E8A
:1009C000000E076E590E086E000E096E1B50D9EC12
:1009D00008F08D84899212008EC001F0020E026E22
:1009E0001B5055EC13F000018E6F8FC001F0030E09
:1009F000026E1C5055EC13F000018F6F89828D90B0
:100A000012001CC001F0FF0E026E000E036E4F0EAE
:100A1000046E000E056E500E066E000E076E580E28
:100A2000086E000E096E1B50D9EC08F08D808D9277
:100A300012001CC001F0300E026E010E036E520E49
:100A4000046E000E056E530E066E000E076E590EF4
:100A5000086E000E096E1B50D9EC08F08D828D9443
:100A600012001CC001F0FC0E026E020E036E540E4A
:100A7000046E000E056E550E066E000E076E590EC2
:100A8000086E000E096E1B50D9EC08F08D84899415
:100A9000120091C001F0040E026E1B5055EC13F0D1
:100AA0000001916F92C001F0050E026E1C5055ECD2
:100AB00013F00001926F89848D9012001CC001F028
:100AC000FF0E026E000E036E4F0E046E000E056EDA
:100AD000500E066E000E076E580E086E000E096E60
:100AE0001B50D9EC08F08D808D9212001CC001F0D3
:100AF000300E026E010E036E520E046E000E056E75
:100B0000530E066E000E076E590E086E000E096E2B
:100B10001B50D9EC08F08D828D9412001CC001F09E
:100B2000FC0E026E020E036E540E046E000E056E75
:100B3000550E066E000E076E590E086E000E096EF9
:100B40001B50D9EC08F08D848996120093C001F0F7
:100B5000060E026E1B5055EC13F00001936F94C00B
:100B600001F0070E026E1C5055EC13F00001946F5B
:100B700089868D9012001CC001F0FF0E026E000EDF
:100B8000036E4F0E046E000E056E500E066E000EC4
:100B9000076E580E086E000E096E1B50D9EC08F057
:100BA0008D808D9212001CC001F0300E026E010E7D
:100BB000036E520E046E000E056E530E066E000E8E
:100BC000076E590E086E000E096E1B50D9EC08F026
:100BD0008D828D9412001CC001F0FC0E026E020E7C
:100BE000036E540E046E000E056E550E066E000E5A
:100BF000076E590E086E000E096E1B50D9EC08F0F6
:100C00008D848998120096C001F0080E026E1B5068
:100C100055EC13F00001966F97C001F0090E026EBB
:100C20001C5055EC13F00001976F89888D901200CD
:100C30001CC001F0FF0E026E000E036E4F0E046E1C
:100C4000000E056E500E066E000E076E580E086EF2
:100C5000000E096E1B50D9EC08F08D808D921200A9
:100C60001CC001F0300E026E010E036E520E046EB7
:100C7000000E056E530E066E000E076E590E086EBE
:100C8000000E096E1B50D9EC08F08D828D94120075
:100C90001CC001F0FC0E026E020E036E540E046EB8
:100CA000000E056E550E066E000E076E590E086E8C
:100CB000000E096E1B50D9EC08F08D84899A120041
:100CC00098C001F00A0E026E1B5055EC13F00001A3
:100CD000986F99C001F00B0E026E1C5055EC13F08A
:100CE0000001996F898A8D9012001CC001F0FF0EDF
:100CF000026E000E036E4F0E046E000E056E500E57
:100D0000066E000E076E580E086E000E096E1B5020
:100D1000D9EC08F08D808D9212001CC001F0300ECD
:100D2000026E010E036E520E046E000E056E530E1F
:100D3000066E000E076E590E086E000E096E1B50EF
:100D4000D9EC08F08D828D9412001CC001F0FC0ECD
:100D5000026E020E036E540E046E000E056E550EEA
:100D6000066E000E076E590E086E000E096E1B50BF
:100D7000D9EC08F08D848B9212004DC001F00C0E5E
:100D8000026E1B5055EC13F04D6E4EC001F00D0E6F
:100D9000026E1C5055EC13F04E6E8B828D9012003B
:100DA0001CC001F0FF0E026E000E036E4F0E046EAB
:100DB000000E056E500E066E000E076E580E086E81
:100DC000000E096E1B50D9EC08F08D808D92120038
:100DD0001CC001F0300E026E010E036E520E046E46
:100DE000000E056E530E066E000E076E590E086E4D
:100DF000000E096E1B50D9EC08F08D828D94120004
:100E00001CC001F0FC0E026E020E036E540E046E46
:100E1000000E056E550E066E000E076E590E086E1A
:100E2000000E096E1B50D9EC08F08D8489901200D9
:100E30005A50000AD8B46DD5010AD8B485D5030A32
:100E4000D8B49AD5010AD8B4AFD5070AD8B4C4D556
:100E5000010AD8B4D6D5030AD8B4EBD5010AD8B460
:100E600000D60F0AD8B415D6010AD8B427D6030A7B
:100E7000D8B43CD6010AD8B451D6070AD8B466D63D
:100E8000010AD8B478D6030AD8B48DD6010AD8B4EA
:100E9000A2D61F0AD8B4B7D6010AD8B4C9D6030A55
:100EA000D8B4DED6010AD8B4F3D6070AD8B408D726
:100EB000010AD8B41AD7030AD8B42FD7010AD8B474
:100EC00044D70F0AD8B459D7010AD8B469D7030A4E
:100ED000D8B47ED7010AD8A4120092D70401220503
:100EE000D8A411D0040120511F0B0009D8A40BD0A5
:100EF00000016B8F030E04012119D8A402D0010E4A
:100F000001D0000E3E6E04012251D8A4120004014B
:100F100020511F0B020AD8A41200040124510F0B08
:100F20000009D8B41200040124510F0B0001B16F65
:100F3000020E0001B1611200200E00018719D8A431
:100F4000120000016B8F040124BF1FD00401245143
:100F50000F0B0001B16F0001B151020D720EF324AD
:100F6000D96E000EF420DA6EDECFB5F0DDCFB6F02C
:100F7000040124510F0B0001B16F0001B151010DAB
:100F8000840EF324D96E000E1ED0040124510F0BE1
:100F90000001B16F0001B151020D6E0EF324D96E44
:100FA000000EF420DA6EDECFB5F0DDCFB6F004012E
:100FB00024510F0B0001B16F0001B151010D820EE0
:100FC000F324D96E000EF420DA6EDF500001B46F06
:100FD0000001B4B103D00001B59502D00001B58580
:100FE000040124BF0DD0040124510F0B0001B16F87
:100FF0000001B151020D720EF324D96E000E0CD017
:10100000040124510F0B0001B16F0001B151020D19
:101010006E0EF324D96E000EF420DA6EB5C0DEFF3A
:10102000B6C0DDFF030E04012119D8A434D0B5C029
:10103000D9FFB6C0DAFF0001DFAE20D0040124BF23
:101040000DD0040124510F0B0001B16F0001B1510B
:10105000010D840EF324D96E000E0CD0040124512E
:101060000F0B0001B16F0001B151010D820EF3248D
:10107000D96E000EF420DA6E0001DF82B5C0D9FF10
:10108000B6C0DAFF000EDB84B5C0D9FFB6C0DAFF08
:10109000000EDB8E1200040E0001B51BB5C0D9FF97
:1010A000B6C0DAFF0001DFAE1DD0B5C0D9FFB6C0B3
:1010B000DAFF7F0EDF16B5C0D9FFB6C0DAFF000E2B
:1010C000DB8C000E0001AA6F050EA96FB5C0ABF056
:1010D000B6C0ACF0000E0001AE6F020EAD6F1AECA0
:1010E00013F006D0B5C0D9FFB6C0DAFF000EDB8C16
:1010F000040E0001B51B0001B4B307D0B5C0D9FF81
:10110000B6C0DAFF0001DFAE37D0040124BF0DD036
:10111000040124510F0B0001B16F0001B151010D09
:10112000840EF324D96E000E0CD0040124510F0B51
:101130000001B16F0001B151010D820EF324D96E8F
:10114000000EF420DA6E0001DF92B5C0D9FFB6C000
:10115000DAFF3B0EDF16000E0001AA6F050EA96F25
:10116000B5C0ABF0B6C0ACF0000E0001AE6F020E21
:10117000AD6F1AEC13F006D0B5C0D9FFB6C0DAFFD8
:101180003B0EDF16040124510F0B0001B16F00016B
:10119000B151010D700EF3240001B26F0F0EF42057
:1011A0000001B36FB2C0D9FFB3C0DAFFFE0EDF1685
:1011B00012001A6E0350010D320EF324D96E000E88
:1011C000F420DA6EDF50176E0350010D760EF32413
:1011D000D96E000EF420DA6EDF500C6E0350010D54
:1011E000790EF324D96E000EF420DA6EDF50106E03
:1011F0000350010D7F0EF324D96E000EF420DA6E39
:10120000DF50186E0350010D7C0EF324D96E000ED2
:10121000F420DA6EDF50196E1A500118FF0A0A6EB8
:101220000C5010180B6E1A5017180B140A14166E67
:1012300017501018116E1A50011817140A6E1A5010
:1012400001140A10176E16501114146E1150FF0A73
:101250001614156E145018140D6E1850FF0A14143D
:101260000A6E1650FF0A18140A10186E1550191439
:101270000E6E1950FF0A15140A6E1650FF0A191443
:101280000A10196E145002140D10126E155002142B
:101290000E10136E125013100F6E04C0D9FF05C04C
:1012A000DAFFDF50121804C0D9FF05C0DAFFDF6E85
:1012B00006C0D9FF07C0DAFFDF50131806C0D9FFF8
:1012C00007C0DAFFDF6E08C0D9FF09C0DAFF0F5090
:1012D000DF120350010D320EF324D96E000EF420FC
:1012E000DA6E17C0DFFF0350010D760EF324D96EBE
:1012F000000EF420DA6E1AC0DFFF0350010D790EE4
:10130000F324D96E000EF420DA6E01C0DFFF035023
:10131000010D7F0EF324D96E000EF420DA6E18C092
:10132000DFFF0350010D7C0EF324D96E000EF42074
:10133000DA6E19C0DFFF1200A09A000E6A6E000E6E
:10134000686E000E706E710E0001C76F0F0E000107
:10135000C86F000E0001CA6F000EC96F000E0001B9
:10136000CC6F010ECB6FFBEC14F0160E6F6E9F0E60
:101370006B6E7B0E696E000E0001CF6F070E0001D1
:10138000CF6501D010D00001CF51040D000EF32421
:10139000D96E040EF420DA6EDE6ADE6ADE6ADD6A79
:1013A0000001CF2BEBD76D8C000E6E6E6D986D9C8F
:1013B0006896000E00016B6F000E0001636F000E57
:1013C0000001656F000E646F68B6F2D7010E426EC1
:1013D000010E436E000E3F6E000E406E000E0001C7
:1013E000866F000E0001CF6F010E0001CF6501D0A6
:1013F00033D00001CF51020D6E0EF324D96E000ED2
:10140000F420DA6E000EDE6E000EDD6E0001CF51AC
:10141000020D720EF324D96E000EF420DA6E000E67
:10142000DE6E000EDD6E0001CF51010D820EF32441
:10143000D96E000EF420DA6E000EDF6E0001CF517F
:10144000010D840EF324D96E000EF420DA6E000E26
:10145000DF6E0001CF2BC8D7080E00016E6F040E9F
:1014600000016F6F160E706E040E0401036F200EE4
:10147000026F080E0401016F040E0401006F0401E5
:10148000008F000E00019A6F000E2E6E000E2F6E60
:10149000000E306E000E316E000E0001896F000EDE
:1014A0000001876F1200A09A000E6A6E000E686E2F
:1014B000000E706E710E00019D6F0F0E00019E6F89
:1014C000000E0001A06F000E9F6F000E0001A26FC2
:1014D000010EA16F2FEC15F0160E6F6E9F0E6B6E46
:1014E0007B0E696E000E0001A56F070E0001A56559
:1014F00001D010D00001A551040D000EF324D96EC7
:10150000040EF420DA6EDE6ADE6ADE6ADD6A00014D
:10151000A52BEBD76D8C000E6E6E6D986D9C68964A
:10152000000E00016B6F000E0001636F000E0001E2
:10153000656F000E646F68B6F2D7010E426E010E41
:10154000436E000E3F6E000E406E000E0001866F6F
:10155000000E0001A56F010E0001A56501D033D07A
:101560000001A551020D6E0EF324D96E000EF42079
:10157000DA6E000EDE6E000EDD6E0001A551020D6A
:10158000720EF324D96E000EF420DA6E000EDE6EB9
:10159000000EDD6E0001A551010D820EF324D96EFF
:1015A000000EF420DA6E000EDF6E0001A551010D71
:1015B000840EF324D96E000EF420DA6E000EDF6E76
:1015C0000001A52BC8D7080E00016E6F040E0001A4
:1015D0006F6F160E706E040E0401036F200E026F03
:1015E000080E0401016F040E0401006F0401008F56
:1015F000000E00019A6F000E2E6E000E2F6E000E70
:10160000306E000E316E000E0001896F000E000179
:10161000876F120000018705D8B46DBA07D0000E9D
:10162000686E69806988020E0001876F68B469A4DA
:1016300003D0689486EC14F06DA202D0A19A120037
:1016400068B069A007D053EC0AF0A08A040E00012C
:10165000876F689068B869A802D0DFEC14F068ACB6
:1016600022D069AC12D0000E0001AA6F730EA96FD0
:10167000000E0001AB6F000E0001AC6F000E000108
:10168000AE6F010EAD6F1AEC13F0689C62EC15F0B2
:1016900000018851D8B402D00001880700018851A8
:1016A000D8B42EEC11F068BA69AA02D065EC14F037
:1016B00068B269A213D07F0E0001AA6FA969000E5B
:1016C0000001AB6F000E0001AC6F000E0001AE6FA9
:1016D000010EAD6F1AEC13F0000E6A6E040E0001DD
:1016E000876102D0A19A120069A646D0000E0001BF
:1016F000B86F030E0001B86501D03ED068A63CD09B
:101700006CCF9CF000019C31E832E8320F0B0001F5
:101710008A6F689600019CB508D000018A51010DBE
:10172000840EF324D96E000E07D000018A51010DFA
:10173000820EF324D96E000EF420DA6E0001DF7001
:1017400000018A51D8A403D0EDEC11F012D0000EA4
:101750000001AA6F720EA96F9C0E0001AB6F000E04
:101760000001AC6F000E0001AE6F000EAD6F1AEC01
:1017700013F00001B82BBDD7A19A1200800E04010E
:101780002019D8A41200C00E00016B6F8FD0D50EA7
:101790000001686F080E0001696F000E00016D6F97
:1017A000120E6C6F120004012251D8A448D004011B
:1017B0002251020D070EF324F66E080EF420F76E88
:1017C0000900F5CF68F00A00F5CF69F0020E0001BC
:1017D000682500019D6F000E0001692100019E6FC8
:1017E0009DC0F6FF9EC0F7FFF86A070EF76403D0AE
:1017F0000800F55005D0F6CFE1FFF7CFE2FFE75044
:1018000000016C6F030E0001682500019D6F000E42
:101810000001692100019E6F9DC0F6FF9EC0F7FF89
:10182000F86A070EF76403D00800F55005D0F6CF2C
:10183000E1FFF7CFE2FFE75000016D6F1200000EED
:1018400000016B6F1200030E0401226127D0040116
:101850002251020D010EF324F66E080EF420F76EED
:101860000900F5CF68F00A00F5CF69F068C0F6FF0F
:1018700069C0F7FFF86A070EF76403D00800F55057
:1018800005D0F6CFE1FFF7CFE2FFE75000019D6FF3
:1018900000019D5100016C6F6D6B1200000E000184
:1018A0006B6F1200000E00016B6F120004012351D8
:1018B000010AD8B46CD7030AD8B475D7010AD8B4D2
:1018C000C2D7F0D71F0E0001876512006DB212005B
:1018D0003B503C10D8B406D03BC0D9FF3CC0DAFF27
:1018E000DFBE12004650D8A402D0010E01D0000E77
:1018F000466E46B002D08B9C01D08B8C000E086ED9
:10190000000E096E4750D8B406D08B0E086E000E3C
:10191000096E000E476E4850D8B406D0900E086E7F
:10192000000E096E000E486E4950D8B406D0950ED0
:10193000086E000E096E000E496E5850D8B406D0DD
:101940004C0E086E000E096E000E586E5950D8B439
:1019500006D0510E086E000E096E000E596E08502A
:101960000910D8A42CD04A2A040E4A6418D0000EBC
:101970004A6E15D08B0E086E000E0FD0900E086EBA
:10198000000E0BD0950E086E000E07D04C0E086EA0
:10199000000E03D0510E086E000E096E10D04A5092
:1019A000000AD8B4E7D7010AD8B4E8D7030AD8B4F4
:1019B000E9D7010AD8B4EAD7070AD8B4EBD708C0E8
:1019C000D9FF09C0DAFF15EE00F0040EDBCFE3FF0C
:1019D000E806FCE2010E016E000E026E050E036EBB
:1019E000050E046E010E90EC11F001C03BF002C038
:1019F0003CF0120020EE01F03550D9263650DA22A4
:101A0000DF5000019E6F00019E510001645D000ED9
:101A10006559D8A064C09EF000019E510001645F2A
:101A2000000E655B000E00019D6F14D000019D51FA
:101A3000010D280EF324D96E040EF420DA6E60C076
:101A4000E1FF61C0E2FFDFCFE7FF0001604B612BE8
:101A500000019D2B00019E5100019D5DD8A0E6D79D
:101A60000001645100016511D8B432D020EE01F0BC
:101A70003750D9263850DA22080EDF6E20EE02F0F9
:101A80003750D9263850DA22280EDE6E040EDD6E6D
:101A900035C0D9FF36C0DAFFDFBC0DD037C0D9FF63
:101AA00038C0DAFF480EDF6E37C0D9FF38C0DAFF22
:101AB000000EDB8E120037C0D9FF38C0DAFF080EE7
:101AC000DF6E37C0D9FF38C0DAFF000EDB8E1200A0
:101AD00020EE01F03750D9263850DA22080EDF6E9A
:101AE00020EE02F03750D9263850DA22200EDE6E72
:101AF000040EDD6E37C0D9FF38C0DAFF040EDF6E8A
:101B000037C0D9FF38C0DAFF000EDB8E0001639FBB
:101B10004150D8A412002EEC11F0120000016B8F7E
:101B2000710E00019D6F0F0E00019E6F000E0001EF
:101B3000A06F000E9F6F000E0001A26F010EA16F3B
:101B40002FEC15F0000E00019D6F040E00019E6F3A
:101B5000000E0001A06F000E9F6F000E0001A26F2B
:101B6000200EA16F2FEC15F06D8C000E0001B16FEF
:101B7000010E0001B16501D019D00001B151010D74
:101B8000820EF324D96E000EF420DA6E000EDF6EA2
:101B90000001B151010D840EF324D96E000EF42022
:101BA000DA6E000EDF6E0001B12BE2D79B0E000152
:101BB0009D6F000E00019E6F000E0001A06F000ED1
:101BC0009F6F000E0001A26F010EA16F2FEC15F0A8
:101BD0006D9C080E00016E6F040E00016F6F000E09
:101BE000356E040E366E35C037F036C038F022C47C
:101BF0009AF000019A51D8A404D0100E0001876F0A
:101C00001200000E0001AA6F010EA96F9A0E0001CA
:101C1000AB6F000E0001AC6F000E0001AE6F010E45
:101C2000AD6F1AEC13F0200E0001876F1200040153
:101C300020511F0BE806D8A4120004012451D8A497
:101C40001200060E04012119D8B420D028D00001BA
:101C50009A05D8A424D0A70E0001686F080E0001D1
:101C6000696F000E00016D6F090E0ED0C00E0001ED
:101C70006B6F15D0090E0001686F080E0001696FC7
:101C8000000E00016D6F8C0E6C6FF0D704012351B4
:101C9000210AD8B4DCD7030AD8B4ECD7010A04016E
:101CA0002039E832030BE806D8A412002AD0570ED8
:101CB0000001686F000E0001696F000E00016D6F7A
:101CC000010E6C6FC10E00016B6F1200800E0001DF
:101CD0006B6F23C457F01200560E0001686F000EA0
:101CE0000001696F000E00016D6F010E6C6F810EB7
:101CF00000016B6F1200800E00016B6F22C456F062
:101D0000120004012151010AD8B41200030AD8B408
:101D1000CED7010AD8B4E0D70A0AD8B41200030A11
:101D2000D8B4D4D7010AD8A41200E5D704012039C9
:101D3000E832030B0009D8A4120054D000016B8FC5
:101D4000080E0001876F1200BEEC0BF012008EEC43
:101D50000DF012009A0E0001686F000E0001696F0D
:101D600000016B81010E00016C6F00016B8F12008E
:101D7000CBEC10F012006EEC07F0120004012451BD
:101D8000010D9B0EF3240001686F000EF42000018A
:101D9000696F00016B81010E00016C6F00016B8F98
:101DA000120000016B8F04012451010D9B0EF324DE
:101DB000D96E000EF420DA6E22C4DFFF1200000E8E
:101DC0000001AA6F020EA96F000E0001AB6F000E9A
:101DD0000001AC6F000E0001AE6F000EAD6F1AEC8B
:101DE00013F0120004012151000AD8B4C1D7010A2E
:101DF000D8B4C1D7020AD8B4BED7060AD8B49ED781
:101E0000030AD8B4A1D7010AD8B4D9D70F0AD8B4D5
:101E1000A1D7010AD8B49BD7030AD8B4AFD7010A17
:101E2000D8B4BFD7070A12006D9800016BBF39D034
:101E3000000163AF0BD0020E446E4050D8B43EECAC
:101E400012F0000E436E000E426E120020EE01F002
:101E50003750D9263850DA22080EDF6E20EE02F015
:101E60003750D9263850DA22200EDE6E040EDD6E91
:101E700037C0D9FF38C0DAFF0C0EDF6E37C0D9FF8C
:101E800038C0DAFF000EDB8E6EC0D9FF6FC0DAFFFC
:101E9000040EDF6E6EC0D9FF6FC0DAFF000EDB8E5E
:101EA0001200040120AF10D0010E446E3F50D8B490
:101EB0003EEC12F0000E436E000E426E4150D8A46C
:101EC00012002EEC11F01200020E446E20EE01F012
:101ED0003750D9263850DA22080EDF6E20EE02F095
:101EE0003750D9263850DA22200EDE6E040EDD6E11
:101EF00037C0D9FF38C0DAFF040EDF6E37C0D9FF14
:101F000038C0DAFF000EDB8E000E436E000E426E0C
:101F10004150D8A412002EEC11F01200080E00015E
:101F20009D6F00016D5111E1080E00016C5DD8B08C
:101F30000CD06CC09DF04B50D8A402D0010E04D040
:101F40004B04D8A402D0020E4B6E00019D5100013B
:101F50006C5F000E6D5B000120EE01F06E51D92622
:101F60006F51DA229DC0DFFF280E396E040E3A6EE3
:101F700000016BA11DD03ED068C0F6FF69C0F7FF1D
:101F8000F86A39C0D9FF3AC0DAFF070EF76403D008
:101F90000800F55005D0F6CFE1FFF7CFE2FFE7509C
:101FA000DF6E0001684B692B394A3A2A00019D0710
:101FB00000019D510001D8B41200DED768C0F6FFC1
:101FC00069C0F7FFF86A39C0D9FF3AC0DAFF070ED7
:101FD000F76403D00800F55005D0F6CFE1FFF7CF46
:101FE000E2FFE750DF6E0001684B692B394A3A2A5D
:101FF00000019D0700019D510001D8B41200DED7F9
:102000000001A26F000E0001A36F040E0001A46F77
:1020100000019D5100019E6F9F6BD89000019E377B
:102020009F370001A2510001A06FA16B0001D89061
:10203000A037A1370001D890A037A13700019E51E9
:102040000001A02700019F510001A1230001D890A9
:10205000A037A1370001D890A037A1370001A051C7
:102060000001A3270001A1510001A423A3C0D9FFAF
:10207000A4C0DAFF0001DF9E00019D510001D8A439
:1020800008D00001A251020D720EF324D96E000E89
:1020900007D00001A251020D6E0EF324D96E000E7E
:1020A000F420DA6EA3C0DEFFA4C0DDFFA3C0D9FF19
:1020B000A4C0DAFF0001DF9C000120EE04F0A35170
:1020C000D926A451DA220001DF8C12006EC0D9FF9C
:1020D0006FC0DAFF000EDFBC010E00019E6F040E20
:1020E00000016E1B080E00018719D8A40CD0040152
:1020F00022517F0B6E6E6E50D8B402D0100E01D0FC
:10210000040E0001876F4404D8A43DD0000120EEE6
:1021100002F06E51D9266F51DA22280EDE6E040EBF
:10212000DD6E8EEC0FF0020E4B18D8A40DD06EC0F1
:10213000D9FF6FC0DAFF040EDF6E6EC0D9FF6FC02B
:10214000DAFF000EDB8E120000019E510001D8A4C0
:102150000DD06EC0D9FF6FC0DAFF480EDF6E6EC0C3
:10216000D9FF6FC0DAFF000EDB8E12006EC0D9FF00
:102170006FC0DAFF080EDF6E6EC0D9FF6FC0DAFFE6
:10218000000EDB8E1200000163AF02D00001639FDE
:10219000000E446E1200000E0401286F000E0401B0
:1021A000296F41D000016B8F3E04D8A448D00401B0
:1021B000288345D000016B8F42D000016B8F040152
:1021C00024BF0DD0040124510F0B00019D6F0001AD
:1021D0009D51020D720EF324D96E000E0CD0040135
:1021E00024510F0B00019D6F00019D51020D6E0ED9
:1021F000F324D96E000EF420DA6EDECF9EF0DDCF30
:102200009FF09EC0D9FF9FC0DAFF0001DFAE17D05C
:102210009EC0D9FF9FC0DAFF0001DFA410D0010EDD
:102220000401286F0CD0040120511F0B000AD8B400
:10223000B9D7010AD8B4BED7030AD8B4BED70001B3
:102240006BAF1200280E0001686F040E0001696F69
:1022500000016B81020E00016C6F12004250D8A485
:102260001200010E426E4350D8A41200010E436EBC
:10227000020E4418D8A416D0000120EE01F06E51D1
:10228000D9266F51DA22000EDF6E6EC0D9FF6FC003
:10229000DAFF480EDF6E6EC0D9FF6FC0DAFF000EA6
:1022A000DB8E12004404D8A41200000E3D6E20EE16
:1022B00001F03550D9263650DA22080EDF6E20EEB6
:1022C00002F03550D9263650DA22200EDE6E040E8A
:1022D000DD6E35C0D9FF36C0DAFF040EDF6E35C0C3
:1022E000D9FF36C0DAFF000EDB8E010E3D6E20EE08
:1022F00001F03750D9263850DA22080EDF6E20EE72
:1023000002F03750D9263850DA22200EDE6E040E45
:10231000DD6E37C0D9FF38C0DAFF800EDF6E1200E5
:10232000056E0150D8B407D00550020D6E0EF3248F
:10233000D96E000E06D00550020D720EF324D96E30
:10234000000EF420DA6EDECF06F0DDCF07F0065087
:102350000710D8A405D0000E016E000E026E120008
:1023600020EE02F00650D9260750DA2202C0DEFF26
:1023700003C0DDFF20EE01F00650D9260750DA2217
:1023800004C0DFFF06C0D9FF07C0DAFF400EDF162A
:1023900006C0D9FF07C0DAFF000EDB8606C0D9FFF2
:1023A00007C0DAFF000EDB8E0150D8B407D005500D
:1023B000020D6E0EF324D96E000E06D00550020DEC
:1023C000720EF324D96E000EF420DA6E040EDF1ABA
:1023D00006C001F007C002F012002D0E0001886F48
:1023E0009CC0B7F0FD0E0001B717D8A43ED09CC02A
:1023F000B7F00001D890B7333F0E0001B7170001C6
:10240000B751040D000EF324356E040EF420366E21
:1024100035C037F036C038F0040E371A35C0D9FF52
:1024200036C0DAFFDF30E8320F0B0D0AD8A41AD01D
:10243000200E00019D6F040E00019E6F20EE02F041
:102440003550D9263650DA22DECF9FF0DDCFA0F00E
:10245000000E0001A26F080EA16F1EEC14F08DECAF
:1024600012F01200C8EC13F0120000019C51FD0B99
:10247000040AD8A4120066EC10F01200000E3F6EA1
:10248000000E406E020E4418D8A41FD020EE01F0BA
:102490003750D9263850DA22080EDF6E20EE02F0CF
:1024A0003750D9263850DA22280EDE6E040EDD6E43
:1024B00037C0D9FF38C0DAFF480EDF6E37C0D9FF0A
:1024C00038C0DAFF000EDB8E120000016C510401EF
:1024D000265D00016D5104012759D8B004D026C4EF
:1024E0006CF027C46DF08EEC0FF0000120EE02F0CE
:1024F0006E51D9266F51DA22280EDE6E040EDD6E83
:102500006EC0D9FF6FC0DAFF480EDF6E6EC0D9FF14
:102510006FC0DAFF000EDB8E1200000E4B6E000E55
:10252000416E000E3F6E000E406E000E3D6E000EBE
:10253000446E6EC0D9FF6FC0DAFF7F0EDF16040E47
:1025400000016E1B6EC0D9FF6FC0DAFF7F0EDF1671
:10255000040E00016E1B37C0D9FF38C0DAFF7F0EB2
:10256000DF16000E00016B6F000E00016D6F000E94
:102570006C6F000E0001636F000E0001656F000EAE
:10258000646F96EC0EF0000E0001AA6F030EA96FA7
:10259000000E0001AB6F000E0001AC6F000E0001D9
:1025A000AE6F000EAD6F1AEC13F014EC0FF01200CA
:1025B000010E00018B6F000E00018C6F000E0001F8
:1025C0008D6F000E00018E6F000E00018F6F020EE6
:1025D0000001906F000E0001916F000E0001926FDC
:1025E000000E0001936F000E0001946F030E0001B6
:1025F000956F000E0001966F000E0001976F000EA0
:102600000001986F000E0001996F040E4C6E000ED1
:102610004D6E000E4E6E000E4F6E000E506E050E8B
:10262000516E000E526E000E536E000E546E000E70
:10263000556E12000ED0010EC2EC14F01200020E04
:10264000C2EC14F0120087EC15F0120017EC0EF03B
:102650001200A9C0AFF0AAC0B0F00001B051000A4A
:10266000D8B404D07F0AD8A412001BD00001AF5107
:10267000010AD8B4E8D7030AD8B41200010AD8B4C2
:10268000E5D7060AD8B41200770AD8B41200010AB6
:10269000D8B41200070AD8B4D2D7010AD8A41200BD
:1026A000CAD70001AF51FF0A1200066E0250070D93
:1026B000000E036E010E046EF3500326F450042244
:1026C0004550010DF3500324D96EF4500420DA6E06
:1026D00006C0DFFF0768000E056E000E096E060ECD
:1026E000096401D01AD00250070D000E036E010ECE
:1026F000046EF3500326F45004220950010DF350E8
:102700000324D96EF4500420DA6EDF50086E0850AE
:10271000071608500512092AE2D7075012000600D2
:10272000E9CFBBF0EACFBCF0E1CFBDF0E2CFBEF025
:10273000D9CFBFF0DACFC0F0F3CFC1F0F4CFC2F001
:10274000F6CFC3F0F7CFC4F0F8CFC5F0F5CFC6F0A1
:102750000AEC0BF0C6C0F5FFC5C0F8FFC4C0F7FF18
:10276000C3C0F6FFC2C0F4FFC1C0F3FFC0C0DAFFB0
:10277000BFC0D9FFBEC0E2FFBDC0E1FFBCC0EAFFE1
:10278000BBC0E9FFBAC0FBFFB9C0FAFF5B92110002
:10279000020E4418D8A403D0FAEC0CF01200000E7C
:1027A000446E3D50D8A41FD020EE01F03750D926FA
:1027B0003850DA22080EDF6E20EE02F03750D926AC
:1027C0003850DA22200EDE6E040EDD6E37C0D9FFDF
:1027D00038C0DAFF0C0EDF6E37C0D9FF38C0DAFF21
:1027E000000EDB8E1200000E3D6E12000001A86F7D
:1027F0000001A5A507D0000E00019D6F0001A851A2
:1028000000EC10F00001A5A307D0010E00019D6FA0
:102810000001A85100EC10F00001A851010D700E4C
:10282000F3240001A66F0F0EF4200001A76FA6C0CD
:10283000D9FFA7C0DAFFA5C0DFFF12009FC0A5F037
:10284000A0C0A6F09DC0A3F09EC0A4F010D0A5C06B
:10285000D9FFA6C0DAFFA3C0E1FFA4C0E2FFDFCF2B
:10286000E7FF0001A54BA62B0001A34BA42B000101
:10287000A107D8A0A2070001A129E9E10001A2292E
:10288000D8B41200E4D701EE00F0620EEE6AE8065A
:10289000FDE100EE60F03D0EEE6AE806FDE100EEBF
:1028A0002EF02C0EEE6AE806FDE11C0EF66E2B0EE5
:1028B000F76E000EF86E0900F5CF5AF05B905B9250
:1028C000000EF86E000175EF15F070A01DD035C038
:1028D000D9FF36C0DAFF800EDE18D8A414D06EC03F
:1028E000D9FF6FC0DAFF840EDE18D8A40CD035C033
:1028F000D9FF36C0DAFF0C0EDF6E35C0D9FF36C007
:10290000DAFF000EDB8E7090689A1200000E000154
:10291000866F000E0001AA6F740EA96F000E0001F1
:10292000AB6F000E0001AC6F000E0001AE6F000E29
:10293000AD6F1AEC13F06D92699401D0689468B48D
:10294000FDD7000E0001896F12000001C76F10D083
:10295000CA84CA90CA82CA96CA98CA9ACA9C4B0E9E
:10296000CB6E9D829F929E92D08EF28CF28E120040
:102970000001C751000AD8B4EBD7010AD8B412003D
:10298000030A120000019D6F10D0CA84CA90CA8247
:10299000CA96CA98CA9ACA9C4B0ECB6E9D829F92C9
:1029A0009E92D08EF28CF28E120000019D51000A90
:1029B000D8B4EBD7010AD8B41200030A1200698414
:1029C00068986D82010E0001866F000E0001896F0C
:1029D000000E0001AA6F750EA96F000E0001AB6F0B
:1029E000000E0001AC6F000E0001AE6F000EAD6F67
:1029F0001AEC13F01200C7C0CDF0C8C0CEF009D059
:102A0000CDC0D9FFCEC0DAFFC9C0DFFF0001CD4B7A
:102A1000CE2B0001CB07D8A0CC070001CB29F0E1D9
:102A20000001CC29D8B41200EBD700018751D8A4FB
:102A30001200000E6D6E000E696E160E6F6E9F0E08
:102A40006B6E7B0E696ED08EA28AA08AF28E01D048
:102A50006D866DA6FDD7010E0001876F12009DC027
:102A6000A3F09EC0A4F009D0A3C0D9FFA4C0DAFF90
:102A70009FC0DFFF0001A34BA42B0001A107D8A03A
:102A8000A2070001A129F0E10001A229D8B4120097
:102A9000EBD7C168070EB46E929092929294929680
:102AA0009298929A89689368F19E9492949C8B82F2
:102AB0009568848E9690969296948D808D828D8462
:102AC00089901200010E2E26000E2F223022312274
:102AD00000018651D8A412000001892B0001895100
:102AE000D8A41200000189691200D8EC12F049EC58
:102AF00015F0000EA5EC14F09CEC09F015EC15F0A7
:102B0000200E0001876101D0FBD76D50F9D71A0E56
:102B10000001A56F010EF6EC13F012006300FFFF39
:102B2000FFFFFFFFFFFFFFFFFFFFFFFFFFFFFFFFB5
:102B3000FFFFFFFFFFFFFFFFFFFFFFFFFFFFFFFFA5
:102B4000FFFFFFFFFFFFFFFFFFFFFFFFFFFFFFFF95
:102B5000FFFFFFFFFFFFFFFFFFFFFFFFFFFFFFFF85
:020000040030CA
:0E000000240E391E008381000FC00FE00F4058
:020000040020DA
:08000000FFFFFFFFFFFFFFFF00
:0200000400F00A
:10000000FFFFFFFFFFFFFFFFFFFFFFFFFFFFFFFF00
:10001000FFFFFFFFFFFFFFFFFFFFFFFFFFFFFFFFF0
:10002000FFFFFFFFFFFFFFFFFFFFFFFFFFFFFFFFE0
:10003000FFFFFFFFFFFFFFFFFFFFFFFFFFFFFFFFD0
:10004000FFFFFFFFFFFFFFFFFFFFFFFFFFFFFFFFC0
:10005000FFFFFFFFFFFFFFFFFFFFFFFFFFFFFFFFB0
:10006000FFFFFFFFFFFFFFFFFFFFFFFFFFFFFFFFA0
:10007000FFFFFFFFFFFFFFFFFFFFFFFFFFFFFFFF90
:10008000FFFFFFFFFFFFFFFFFFFFFFFFFFFFFFFF80
:10009000FFFFFFFFFFFFFFFFFFFFFFFFFFFFFFFF70
:1000A000FFFFFFFFFFFFFFFFFFFFFFFFFFFFFFFF60
:1000B000FFFFFFFFFFFFFFFFFFFFFFFFFFFFFFFF50
:1000C000FFFFFFFFFFFFFFFFFFFFFFFFFFFFFFFF40
:1000D000FFFFFFFFFFFFFFFFFFFFFFFFFFFFFFFF30
:1000E000FFFFFFFFFFFFFFFFFFFFFFFFFFFFFFFF20
:1000F000FFFFFFFFFFFFFFFFFFFFFFFFFFFFFFFF10
:00000001FF
